:020000021000EC
:1090000000600020A59301005D9301005F930100C3
:10901000619301006393010065930100000000006B
:109020000000000000000000000000006793010045
:1090300069930100000000006B9301006D93010033
:10904000B5B201006F93010089B401006F93010074
:10905000D9B40100000000003DB301006F9301008E
:109060006F9301006F9301006F9301006F930100F4
:109070006F9301006F9301006F9301006F930100E4
:109080006F93010041A401006F9301006F930100F1
:109090006F9301006F930100DDCC01006F9301001D
:1090A0006F9301006F9301000000000000000000BA
:1090B0006F9301006F9301000000000000000000AA
:1090C00000000000000000000000000000000000A0
:1090D0000000000000000000000000000000000090
:1090E0000000000000000000000000000000000080
:1090F0000000000000000000000000000000000070
:10910000000000000000000000000000000000005F
:10911000000000000000000000000000000000004F
:10912000000000000000000000000000000000003F
:10913000000000000000000000000000000000002F
:10914000000000000000000000000000000000001F
:10915000000000000000000000000000000000000F
:1091600000000000000000000000000000000000FF
:1091700000000000000000000000000000000000EF
:1091800000000000000000000000000000000000DF
:1091900000000000000000000000000000000000CF
:1091A00000000000000000000000000000000000BF
:1091B00000000000000000000000000000000000AF
:1091C000000000000000000000000000000000009F
:1091D000000000000000000000000000000000008F
:1091E000000000000000000000000000000000007F
:1091F000000000000000000000000000000000006F
:10920000354936480A1A02D0072291438D4634491F
:1092100034480A1A06D00722914381F309880222B2
:1092200082F3148830483149314A00F044F831481B
:109230003149324A00F03FF831483249324A00F0B1
:109240003AF832483249334A00F035F83248334967
:10925000334A00F030F833483349344A00F02BF8F1
:1092600033483449344A00F026F83448344900225F
:1092700000F02CF833483449002200F027F8334836
:109280003349091A082902DB002202604160314A91
:1092900090471F481F49884205D00268043003B434
:1092A000904703BCF7E700208646EC4600200021EB
:1092B000294A9047FEE7884207D0521A05D0037822
:1092C00001300B700131013AF9D17047884202D068
:1092D00002700130FAE7704700600020005800205B
:1092E0000060002000600020704C0200E01A0020A6
:1092F000401B0020EC930100EC93010020E50100ED
:10930000704C0200E01A0020E01A002024E6010060
:1093100024E6010024E6010024E6010024E6010021
:1093200024E6010024E6010024E60100704C02005E
:10933000D04C0200401B0020401B0020401B00209E
:1093400078390020783900207839002078390020D9
:1093500078410020BB930100A1BA0100FEE7FEE7BF
:10936000FEE7FEE7FEE7FEE7FEE7FEE7FEE7FEE7D5
:1093700009480068094909680A280AD1002908D162
:10938000074802686FF070031A404FF040031A4319
:10939000026000F009B80000300100103401001034
:1093A000E40E0040FFF7E4BF0B484FF0070188438D
:1093B00085460A488047FFF723BF094809490A4AFA
:1093C000884207D0521A05D0037801300B70013162
:1093D000013AF9D170470000006000204DAE010055
:0C93E00024E60100E01A0020E01A002042
:1093EC007047000007B5044B0093044A402300F07B
:1093FC0032F803B05DF804FB0D940100411B002012
:10940C002DE9F84388461446B2B10F4B0F4E032595
:10941C00002743F00109224608EB0701002002F067
:10942C0095FC0744241A48B933782BB14FF47A4091
:10943C00C847013D02D13570BDE8F8830123337074
:10944C00002CE8D1F8E700BF30E60100401B0020FB
:10945C00704702F0ABBCF0B595B01D4616460846F9
:10946C000C4601F095FB1A9B0D93CDE90865002580
:10947C002B46082205A920460A958DF82C500C95F0
:10948C0001F0A2FB079B0293069B03939DF81430FB
:10949C008DF8115003F00302012A1DD1BDF81420E0
:1094AC00059DC3F3C203C2F383168DF81030B200CE
:1094BC0008230EA9204601F087FBC5F3952508ABC0
:1094CC000093324602AB0EA9284600F037FB20462B
:1094DC0001F062FB15B0F0BD022AF8D1BDF81650B0
:1094EC00C3F3C203C5F389158DF810300827082D76
:1094FC002E4628BF08263B4632460EA9204601F0D0
:10950C0063FBAD1B08AB02AA31460EA8374400F032
:10951C0079FB002DEBD1DAE708B5FFF79AFF044889
:10952C00042100F07BFA034B01225A7108BD00BFE5
:10953C0014E60100E01A00200378024613F0040040
:10954C0006D003F00300012803D0022809D0012023
:10955C0070470B6812880233C2F3831213440B60FA
:10956C0070470B685288023303EB92130B60EEE7E3
:10957C002DE9F04FDFF81CA187B00F4600230446FD
:10958C00861C0DF1070015468DF8073000F0E6FD3E
:10959C00DAF804203A60DAF8083003F580739B1A85
:1095AC000AF21C470AF583690AF21448B3421AD32B
:1095BC000020002D69D004F00F039B0143F005033C
:1095CC0063F30F00DAF80430DAB2033233444AF8AA
:1095DC0022009DF80700CAF8043000F0E3FD0120DA
:1095EC0007B0BDE8F08F0121384601F000F848467D
:1095FC0001F015F8404601F012F8DAF80800029074
:10960C00C0B203300AEB800002A9FFF795FF029B62
:10961C0030BBDAB20AEB8202D16803919A1C013397
:10962C00DBB20AEB83030292D3F80CB001F0030314
:10963C00012B22D0022B15D08346404600F0F2FFBE
:10964C0010B1029BCAF808305946384600F0CFFFDB
:10965C00DAF80830DAF8042003F580739B1AA5E7D2
:10966C00D8B2CEE7BDF80E30C3F3891303334FEAFB
:10967C001B4B02EB93030293DFE7BDF80C30C3F3F3
:10968C0083134FEA1B4B1344F5E7A40544F0060083
:10969C0098E700BF541C0020064B074810B5002269
:1096AC001A7001F02EFA044610B9044801F0BAFA07
:1096BC00204610BD541C002078E501006CE601002A
:1096CC0030B50A4C71B10A4A0A49121BD208002360
:1096DC009A4201D1002030BD31F82350854202D08E
:1096EC000133F5E7034654F83300F4E78CE5010049
:1096FC0014E60100E01A0020094B013903EBC0000D
:10970C00032909D8DFE801F00A0204060420704797
:10971C0000797047407970470020704702207047ED
:10972C008CE5010070470000034BD3E90130C31AEC
:10973C0058425841704700BF541C00202DE9F0419D
:10974C0086B0FFF7F1FF0546002840F0ED80774C1E
:10975C00C4F81804BFF34F8FA3680293DBB2033332
:10976C0004EB830002A9FFF7E7FE029B18B1D4F8C3
:10977C001824002A5AD0DAB2991C013304EB820265
:10978C00DBB204EB8303D268DB68049302F00303BF
:10979C00022B0392029154D1BDF80E306448C3F3EE
:1097AC008917502F3E4628BF502606F1080166F354
:1097BC008F13C1F30901ADF80E3001F0BAF905466B
:1097CC00002800F09C8001F0E3F90023082203A993
:1097DC00284601F0EFF90299CB43DBB20133C9B251
:1097EC000331B6EB830F4FEA830204EB810125D9D9
:1097FC005FFA82F80823A6EB0806284601F0DAF98E
:10980C00F6B208F108034B4903F0FC033246284634
:10981C0001F0D0F9029B033703EB97070297D4F8BA
:10982C001834002B43D1D4F8106453E062689A4288
:10983C0094D8A260284606B0BDE8F08108233246D1
:10984C00E5E7012B5BD1BDF80C303948C3F383112C
:10985C00062928BF062161F38913023101F00F019B
:10986C008900ADF80C3001F064F90546002846D0AB
:10987C0001F08EF90023082203A9284601F09AF979
:10988C000026BDF80C20C2F38312B300964203F1FC
:10989C000803C4D202994A1CC9B20331029204EBE8
:1098AC0081010422284601F085F90136E9E72846B2
:1098BC0001F072F9FFF738FF80F00105EDB2B9E75E
:1098CC00F3685B7923B1336829461B6830469847A7
:1098DC00F3681E68002EF3D1284601F05DF90DF1F6
:1098EC0007008DF8076000F039FCD4F818340BB978
:1098FC00029BA3609DF8070000F054FCDAE7D4F853
:10990C00104454B90C4B0D480D49C01AC008000442
:10991C0040F0020000F05EF8CCE7236820469B681C
:10992C009847E3681C68ECE7002583E7541C00208B
:10993C0078E50100601C00208CE50100BCE501000D
:10994C0054E601002DE9F34704460E46924601A960
:10995C00012218469946FFF70BFE1C4F10B3019DD0
:10996C004FF00008AA1CC84508EB020125D1184885
:10997C00002100F00DFE80F31000000440EA1440BA
:10998C00E4006B1C04F03804DBB2EDB244F00104CB
:10999C0007EB8303033544EA881444EA8624D86031
:1099AC0047F825403B781BB1FFF7C8FE0028FBD1D8
:1099BC00FFF7B8FE02B0BDE8F087C9B207EB810132
:1099CC005AF82830CB6008F10108CCE7541C002071
:1099DC007020002000231A46FFF7B4BF07B50123FF
:1099EC00019201AAFFF7AEFF03B05DF804FB07B5C7
:1099FC00CDE9002302236A46FFF7A4FF03B05DF80C
:109A0C0004FB1FB5CDE90123069B039301AA032395
:109A1C00FFF798FF05B05DF804FB000030B50F4C64
:109A2C00D4F8102403460020114631B9D9680871C6
:109A3C004AB9C4F810340A6030BDC9680D79854242
:109A4C0006D00968F1E7D26814680C601360F3E77C
:109A5C0001300A28E8D14FF0FF30EDE7541C00200C
:109A6C0038B5084B0125D3F810441D7004B938BD26
:109A7C00E3685D71236820465B689847E3681C685F
:109A8C00F4E700BF541C0020C38873B504460D4690
:109A9C0033B1144A00921449144A284600F025FEAA
:109AAC00217A05291CD0637A4BB1A088FFF724FEDC
:109ABC000F4B104953F82020284600F016FE227A4E
:109ACC000D4BA08853F822600021FFF7F9FD0B49DC
:109ADC0003463246284602B0BDE8704000F005BE91
:109AEC0002B070BD98E6010080E6010078E6010046
:109AFC0004E701009DE6010028E70100A0E6010053
:109B0C0010B5037A052B0C460FD0437A23B1084AC3
:109B1C000849204600F0E9FD0749204600F0E5FD24
:109B2C002046BDE8104000F0D5BD002AF8D0F3E780
:109B3C0098E601009DE6010095E601002DE9F04351
:109B4C0085B01F460C9D002395F80C902B73064690
:109B5C000C46904629463846FFF796FFB8F1060F9B
:109B6C0009D8DFE808F00412181F283340003146EA
:109B7C00284600F0BAFD002229463846FFF7C0FF00
:109B8C0085F80C9005B0BDE8F08322683146284674
:109B9C0000F0ABFDEFE7D4E900233146284600F096
:109BAC00A4FDE8E7A36800933146D4E900232846D6
:109BBC0000F09BFDDFE7E3680193A3680093314657
:109BCC00D4E90023284600F090FDD4E723690293E2
:109BDC00E3680193A36800933146D4E90023284637
:109BEC0000F083FDC7E76369039323690293E3687D
:109BFC000193A36800933146D4E90023284600F072
:109C0C0074FDB8E708292DE9F74F80460E46174634
:109C1C001C463DD800251B7B25732146104601931D
:109C2C00FFF732FFDFF888A0DFF888B0AE4232D9F8
:109C3C0018F805205946204600F057FD0135082D2F
:109C4C00F4D11D49DFF874A0DFF874B0204600F0A1
:109C5C004CFD4FF000094E4524D918F809507E2DC3
:109C6C001ED8284603F0FAFF002814BF2A462E22DD
:109C7C005946204600F039FD09F10109B9F1080FE8
:109C8C00E9D1012221463846FFF73AFF019B2373A5
:109C9C0003B0BDE8F08F5146204600F026FDCDE71D
:109CAC002E22E5E75146204600F01FFDE4E700BFF9
:109CBC00B0E60100AAE60100B4E60100B2E601003C
:109CCC00B6E601001FB50021039001AA44F2010081
:109CDC00CDE9011100F004F805B05DF804FB0000BB
:109CEC0038B572B6FFF7BCFEFFF728FD0028FBD194
:109CFC00104B114C114D1249E41AE408240444F0A1
:109D0C000100FFF767FED5F8F030DB0700D500BE89
:109D1C000C4944F00200FFF75DFEBFF34F8FEA6879
:109D2C00094B02F4E0621343EB60BFF34F8F00BFAB
:109D3C00FDE700BF8CE50100BCE5010000ED00E093
:109D4C0047E7010053E701000400FA0510B5D0E91C
:109D5C000243D1E90202A04272EB03032CBF0120A3
:109D6C00002010BD08B50A4800F04DFB094AD2E9A5
:109D7C000031C018084BD3E9002341F10001904297
:109D8C0071EB030303D210F1807041F1000108BDA7
:109D9C00E81A0020102100208821002037B5054644
:109DAC000C460A4801A900F062FB60B105704460E2
:109DBC0001A9064800F085FB18B1054800F028FB06
:109DCC00002003B030BD0420FBE700BF742100204D
:109DDC00E81A0020294B73B51E7804461EB90026DC
:109DEC00304602B070BD0028F9D0FFF7BBFFD4E9B4
:109DFC0002239042994139D300230DF107008DF8CD
:109E0C00073000F0ABF923692BB94FF0FF324FF05C
:109E1C00FF33C4E902239DF8070000F0C3F9D4E92D
:109E2C000530984700250DF107008DF8075000F01C
:109E3C0095F92369C3B1D4E90212B2F1FF3F08BF0F
:109E4C00B1F1FF3F05D05B1842F10002C4E90232C8
:109E5C0035469DF8070000F0A5F9002DBFD0084845
:109E6C00214600F0FEFEBBE71D46F2E7B3F1FF3FD3
:109E7C0008BFB2F1FF3FB2D0F1E700BF18210020BC
:109E8C0070E7010013B5114B1149186801900823B4
:109E9C001048582200F0D8FA044698B90E4A0F48D8
:109EAC0001A900F0A1F9044660B90C48012100F0A9
:109EBC008DFA01230A4A0948194600F0EFF9094BBB
:109ECC0001221A70204602B010BD00BF6AE70100E3
:109EDC001C21002074210020AD9F0100E81A0020F5
:109EEC00FFFF7F0018210020F7B5044600250DF177
:109EFC00070017460E468DF8075000F02FF9D4E9ED
:109F0C000223B3F1FF3F08BFB2F1FF3F07D1FFF7C8
:109F1C0029FF301841F10001C4E9020101259DF827
:109F2C00070000F03FF955B12369A76103B1266121
:109F3C002146002003B0BDE8F040FFF72FBF2846B4
:109F4C0003B0F0BD37B5054600240DF107008DF8C0
:109F5C00074000F003F9D5E90223B3F1FF3F08BF36
:109F6C00B2F1FF3F06D04FF0FF324FF0FF33C5E99F
:109F7C00022301249DF8070000F014F934B129469E
:109F8C00012003B0BDE83040FFF708BF204603B006
:109F9C0030BD0000014800F036BA00BFE81A0020BE
:109FAC002DE9F743064600F019FA40B1634AD2E9AD
:109FBC00003113F1807341F10001C2E9003100213D
:109FCC00304600F01AFA38B15D4C236823B1206892
:109FDC00FFF700FF002323600121304600F00DFA4B
:109FEC0020B1FFF7BFFE574BC3E900015648544F51
:109FFC0001A900F076FA4FF0FF344FF0FF35A0B90D
:10A00C00DFF848814E4D404600F041FE002800F03C
:10A01C008680D0E90223B3F1FF3F08BFB2F1FF3FC6
:10A02C0033D1404600F02DFEEDE70378012B21D013
:10A03C00022B09D1DFF81481404600F022FE0028E3
:10A04C0077D0C0E90245F7E75BB94168D1E9022353
:10A05C00B3F1FF3F08BFB2F1FF3F02D03B4800F025
:10A06C0000FE01A9384800F067FA01A9364800F053
:10A07C0038FAC4E741683B68994202D100233B603F
:10A08C00EFE7324800F006FEEBE7296891B129684A
:10A09C00D1E9020182428B412FD22B68D3E90223F2
:10A0AC00B3F1FF3F08BFB2F1FF3F03D02968404630
:10A0BC0000F0D7FD404600F0E4FDD0E90249074628
:10A0CC00FFF750FE201A69EB0109012879F1000312
:10A0DC0018DBB0F5350F13D3FFF75CFF1C4A0244B5
:10A0EC001C484FF49603002100F0F8F890B92B6847
:10A0FC0013B9304600F0CAF82F6003B0BDE8F08306
:10A10C002246EDE71348002100F06DF93846FFF7C1
:10A11C0061FE01E00D28F9D000232B6073E7084B9A
:10A12C001B68002BE9D1304603B0BDE8F04300F0CA
:10A13C00B1B8094B01221A7093E700BF102100201F
:10A14C0090210020882100207421002070E701005C
:10A15C00FFFFB400E81A00201821002070B5EFF3BF
:10A16C00108672B60C4A946801239CB993600B4B11
:10A17C000B4DD3F8801029401160C3F88050D3F8F0
:10A18C00841051604FF0FF32C3F88420047006B97C
:10A19C0062B670BD0370FAE79421002000E100E084
:10A1AC00FC06FFBD084B9A6810B55AB150B9EFF3D5
:10A1BC00108172B6054A1C6814605C685460986023
:10A1CC0001B962B610BD00BF9421002000E100E08F
:10A1DC000346405882B028B100225A505B58019374
:10A1EC00019B012002B07047F8B5204B4479204EFA
:10A1FC0043F824201F4A204B06EBC4049B1A2279F7
:10A20C00DB081B0432B143F002001C49FFF7E2FBF0
:10A21C000820F8BD02680C88C2F8084590F9045073
:10A22C008A7804795201002DD2B219DB14494F19E6
:10A23C0087F8002301226D0904F01F0402FA04F4CC
:10A24C0041F82540427906EBC201012446F8320060
:10A25C000C7143F003000B49FFF7BCFB0020D8E75F
:10A26C00094904F00F040A55ECE700BFA8210020AF
:10A27C00A02100208CE50100CCE501007CE7010069
:10A28C0000E100E09EE7010014ED00E0036801220C
:10A29C001A607047036801225A60704773B501F168
:10A2AC005005AD000068ADB24FF480348C400026F0
:10A2BC00C0F80843C0F84843465101F5A871455908
:10A2CC00019522F07F42019D40F82120C0F84443C3
:10A2DC000BB1C0F8044302B070BD00002DE9F74F7C
:10A2EC000D4622F07F4402684FF4803705F150068A
:10A2FC008F408046B60002EB8500C2F84873B6B2B8
:10A30C00C2F80873D2F8041599464FF0000BD0F838
:10A31C004035C0F8401542F806B05B1A92590092CD
:10A32C0023F07F43012B009A4FEA850A0CD1264B70
:10A33C004FF4806043F001039847D8F8003043F89D
:10A34C0006B09B590193019BD8F80010D1F8046515
:10A35C00C1F84473A31B23F07F43012B1CD11A4B70
:10A36C0005F5A875013443F0010341F825404FF47D
:10A37C0080609847D8F80030D3F804359E4209D154
:10A38C00D8F800300020C3F84473C3F8047303B04A
:10A39C00BDE8F08F0D20FAE78A44C9F1FF13CAF823
:10A3AC004045D1F80405221A013A22F07F4203F508
:10A3BC007F439342EED3002AE2D10134CAF84045E0
:10A3CC00D1F804359842DAE7B0E7010003680222BD
:10A3DC00C3F8442309B1C3F80423704700684FF451
:10A3EC008271FFF7F5BE4FF4803303FA01F1036875
:10A3FC00C3F84813C3F8081370475031890000683C
:10A40C0089B2FFF7E5BE0368D3F804057047000076
:10A41C0090F90430002B09DB5A09012103F01F03CA
:10A42C0001FA03F34032024941F82230704700BF71
:10A43C0000E100E0024B034A1B681068184700BF9C
:10A44C00A8210020A021002030B5054659B1B2FB4F
:10A45C00F3F403FB1424A0B238B9C5E90010A860CA
:10A46C00AA81EB8130BD0E20FCE70920FAE737B555
:10A47C0050E8013F9DB2C48925448489A54228BF78
:10A48C002D1B0489A54202BFBFF32F8F002207E0CA
:10A49C00C5EA030540E80154002CE9D14FF0010254
:10A4AC008DF803200193019A0A609DF8031001F0C6
:10A4BC00FF0321B1006810FA82F003B030BD1846DA
:10A4CC00FBE70A884B889A4209D150E8012FC2EA6F
:10A4DC00024240E80123002BF7D1012070470020F5
:10A4EC00704737B550E8023F1FFAA3F5C488A54260
:10A4FC0002BFBFF32F8F00220DE0C489254484894D
:10A50C00A54228BF2D1BC3EA054540E80254002C88
:10A51C00E8D14FF001028DF803200193019A0A60F3
:10A52C009DF8031001F0FF0321B1006800EB12400D
:10A53C0003B030BD1846FBE70A884B889A4209D114
:10A54C0050E8022FC2EA224240E80223002BF7D146
:10A55C00012070470020704701F01F024B090121B8
:10A56C00914000EB830000F01EB801F01F030122A4
:10A57C009A404B0900EB8300D14300F02CB84B09F7
:10A58C0001F01F0150F82300C84000F00100704793
:10A59C0010B5034653E8000F0A4643E8002494F034
:10A5AC00000FF7D110BD10B5034653E8002F42EA57
:10A5BC00010043E8000494F0000FF6D110BD10B573
:10A5CC00034653E8000F00EA010243E8002494F02C
:10A5DC00000FF6D110BD10B5034653E8002F02EA68
:10A5EC00010043E8000494F0000FF6D110BD10B543
:10A5FC00034653E8002F02EB010043E8000494F0FB
:10A60C00000FF6D110BD10B5034653E8002FA2EB96
:10A61C00010043E8000494F0000FF6D110BD0121B5
:10A62C00FFF7C1BF0021FFF7CABF10B590B1D0E949
:10A63C00012301689B1ADBB20A60013BDBB2FF2BE2
:10A64C00026802D10020107110BD11684C1C1460FE
:10A65C000B70F2E70E20F7E737B5054600240DF135
:10A66C0007008DF80740FFF779FD2A686B681168C1
:10A67C0099420ED9481E106011F8013CEC68298AE9
:10A68C0001FB0344AB6811791B1ADBB2994238BF4A
:10A69C0013719DF80700FFF785FD204603B030BD10
:10A6AC0037B5054600230DF107000C468DF8073031
:10A6BC00FFF754FD2A681368591C1160E968641A85
:10A6CC00298AB4FBF1F41C709DF80700FFF76AFDB2
:10A6DC0003B030BD826810B504462AB143690168E5
:10A6EC00006998470023A36010BD0EB403B503990D
:10A6FC0021B104AB01AA019300F076F802B05DF829
:10A70C0004EB03B070470A2938B504460D4602D154
:10A71C000D21FFF7F8FFA3682268591CA160D554DE
:10A72C00D4E901329A4204D32046BDE83840FFF701
:10A73C00D1BF38BD2DE9F84F9846DDE90A431546DF
:10A74C0082460F460A464FF00109AA420FD2C14574
:10A75C0038BFC14613F0010B01D16CB9002401269E
:10A76C00B8F1010F1BD908F1FF386E43F8E709F176
:10A77C000109B2FBF5F2E8E79B070ED5B8F1000F23
:10A78C000CBF30262026A145E9D2013C314650466B
:10A79C00FFF7B9FF002CF6D1E0E72026F3E7B7FB73
:10A7AC00F6F39D42E1D9DFF83C80B7FBF6F3504657
:10A7BC0018F8031006FB1377FFF7A5FF3346AB42DF
:10A7CC00B6FBF5F6F1D2BBF1000F02D00CB1A145EE
:10A7DC0001D3BDE8F88F20215046013CFFF793FFD1
:10A7EC00F4E700BFB6E701002DE9F74F0546174621
:10A7FC008846002900F03E8118F8011B49B92B7BD3
:10A80C00002B00F03781284603B0BDE8F04FFFF76E
:10A81C0061BF252940F0B780002698F800302D2B19
:10A82C00424608F1010823D0302B24D02B2B25D005
:10A83C0000242A2B02F1010123D13B681A1D1B684D
:10A84C003A601C440A4613782E2B26D101324FF065
:10A85C00000A104610F8011BA1F1300CBCF1090FD5
:10A86C001DD80A2303FB0A13A3F1300A0246F0E7B2
:10A87C0046F00106D1E746F00206CEE746F00406A4
:10A88C00CBE711F8013CA3F130000928DBD80A22F0
:10A89C0002FB0434303C0A46CBE74FF0000A12F8B6
:10A8AC00011B01F0FB0068289046F8D0782909D8E4
:10A8BC006F290CD8632962D022D8252963D0582956
:10A8CC0000F0888098F80030002B95D197E770390C
:10A8DC000829F7D801A353F821F000BF5BAA0100A7
:10A8EC00D1A80100D1A80100F1A90100D1A8010053
:10A8FC00CFA90100D1A80100D1A80100E1A9010054
:10A90C00642901D06929DDD13A68D2F80090111D73
:10A91C0089EAE9723960A2EBE9724FF0010B092A5E
:10A92C0035DCD34538BFD3462CB1B9F1000F01DB70
:10A93C00720700D5013CB30702D5BAF1000F03D062
:10A94C00F00701D44CBB0024B9F1000F2DDAC9F18A
:10A95C0000092D212846FFF7D6FE06F00302022A35
:10A96C0004D1BAF1000F01D11CBB0024CDE9004683
:10A97C0053460A2249462846FFF7DCFEA2E73B680D
:10A98C001A1D19783A602846FFF7BDFE9AE70A238C
:10A99C000BF1010BB2FBF3F2C1E7A345D4D220219A
:10A9AC002846013CFFF7AFFECCE77107D5D52B212C
:10A9BC00D0E7A345DAD230212846013CFFF7A3FEAD
:10A9CC00D2E73968CDE900460A1D3A6053460A229F
:10A9DC000968D0E739680A1D3A60CDE9004653464C
:10A9EC001022F5E73B681A1D3A6016F00106D3F801
:10A9FC00009024D1B9F1000F03D0484603F05EFA61
:10AA0C000646B4421DD809F1FF3919F8011F002977
:10AA1C003FF458AF2846FFF776FEF6E72846013696
:10AA2C00FFF771FE19F806100029F7D1A642BFF402
:10AA3C0049AF20212846013CFFF765FEF6E70026CA
:10AA4C00F0E720212846013CFFF75DFED9E73B6883
:10AA5C001A1D3A60302128461C68FFF754FE7821F5
:10AA6C002846FFF750FE00220823CDE9003221468C
:10AA7C00102280E703B0BDE8F08F00BF2DE9F84F3E
:10AA8C00B0F806A04579D2F800B09DF828900AFBE2
:10AA9C0005F5043D88460BEB0301A94203F10404C0
:10AAAC0088BFA5EB030BB4FBFAF607460AFB16446A
:10AABC00C2F800B04EB9AAEB04055D4528BF5D464F
:10AACC00BBF1000F04D1BDE8F88F3F68013EF1E700
:10AADC00043408EB06003C442A46B9F1000F0DD0B3
:10AAEC002146ABEB050B03F06BF9DA452E443F68BE
:10AAFC0055464FF0000428BF5D46E1E7014620466D
:10AB0C00EFE7FFF792BDF8B546790146721E054690
:10AB1C00002393422D6803D30024A64202D8F8BD2B
:10AB2C000133F6E70F682846FFF7BAFD01343946C2
:10AB3C00F3E72DE9F843068ACD1C0746FFF78CFD99
:10AB4C00043E35440446B5FBF6F5F0B14FF4807382
:10AB5C00EDB28380C680013D076081464FF000084E
:10AB6C00A84512D23846FFF777FD064648B16379FF
:10AB7C000133637108F10108C9F8000007608146D0
:10AB8C00EEE72046FFF7BFFF34462046BDE8F883CA
:10AB9C0001210430FFF72BBD10B501210446043010
:10ABAC00FFF731FDC0B220B92046BDE81040FFF7D9
:10ABBC00AABF10BD1FB503920022009203AAFFF793
:10ABCC005DFF05B05DF804FB1FB5039201220092F6
:10ABDC0003AAFFF753FF05B05DF804FB41DF704794
:10ABEC00064B10B500241C70054B1C60BFF35F8F27
:10ABFC000449054800F01FF8204610BDB421002080
:10AC0C00B8210020D0E70100AC21002008B502F0EB
:10AC1C0045F818B1BDE80840FFF7E0BF20BF40BFC2
:10AC2C0020BF08BD836800225A60C3E904229A60E1
:10AC3C00DA601A6070470B684A684360934208BF39
:10AC4C000023016008BF43607047436843B102684A
:10AC5C00916852680B449342436004BF00234360E5
:10AC6C00704770B5446806460D46206818B1B36845
:10AC7C002946984718B923682B60256070BD246855
:10AC8C00F3E74368186808B102681A6070474368B4
:10AC9C00186870474368186800B97047884203D138
:10ACAC0002681A600120704703460068F4E7000050
:10ACBC0010B50D49A1F59472914201D800200FE016
:10ACCC008C1AE30F03EBE4035B1002EBC30452F8A2
:10ACDC003330834205D802D204F10802ECE76068F5
:10ACEC0010BD2146E8E700BFDCEC010008B5FFF71A
:10ACFC00DFFF024B002808BF184608BD9FEB010080
:10AD0C007FB503788DF804304368029383688DF81F
:10AD1C000C30C36804930369064A8DF81430064B53
:10AD2C0001A853F8213052F82110984707B05DF86C
:10AD3C0004FB00BFBC210020C0210020F0B505465B
:10AD4C00174615F804CB124A42F82C70114A42F8F7
:10AD5C002C30114B0C460FCB85B06E4686E80F009D
:10AD6C002368009323798DF8053063798DF80630CC
:10AD7C00A3680293002FA389084AADF80C3008BFD2
:10AD8C003A4663463146284600F0CAFB05B0F0BD92
:10AD9C00C0210020BC210020DCEC01000DAD010025
:10ADAC00BFF34F8F0549064BCA6802F4E0621343A8
:10ADBC00CB60BFF34F8F00BFFDE700BF00ED00E09D
:10ADCC000400FA054FF08053D3F83001421C04BF45
:10ADDC004FF0704393F8E00F831F5842584170476F
:10ADEC004FF0704393F8E02F062A09D1D3F8E83FCF
:10ADFC00C3F30313033B042B02D8024AD05C704705
:10AE0C0000207047FFEC01004FF08053D3F8300165
:10AE1C00421C04BF4FF0704393F8E00F062804D097
:10AE2C00A0F10A03584258417047012070470000B6
:10AE3C00024AD2F80034002BFBD0704700E00140EE
:10AE4C0010B5FFF7BFFF40B14FF080539C4AD3F8C9
:10AE5C002433C3F30423C2F84035FFF7C1FF10B10C
:10AE6C00984B994A5A67FFF7CFFF48B14FF0805380
:10AE7C004FF08042D3F84432C3F34233C2F83C352E
:10AE8C00FFF7AEFF30B1914AD2F8FC3023F080735B
:10AE9C00C2F8FC30FFF7B8FF40B14FF080430022FE
:10AEAC00C3F80C21C3F81021C3F83825FFF798FF1D
:10AEBC0020B14FF080430322C3F8A025FFF790FF89
:10AECC0060B1834B0522C3F810260122C3F88826F3
:10AEDC000022C3F818263F22C3F814264FF08053E3
:10AEEC00D3F83021511C09BF4FF07043D3F83431E3
:10AEFC0093F8E02FD3F8E83F08BFC3F30313062AF7
:10AF0C004ED1033B042B03D8724AD35C002B49D09F
:10AF1C004FF08052704BD2F80414C3F82015D2F8BD
:10AF2C000814C3F82415D2F80C14C3F82815D2F859
:10AF3C001014C3F82C15D2F81414C3F83015D2F829
:10AF4C001814C3F83415D2F81C14C3F84015D2F8F1
:10AF5C002014C3F84415D2F82414C3F84815D2F8B9
:10AF6C002814C3F84C15D2F82C14C3F85015D2F889
:10AF7C003014C3F85415D2F83414C3F86015D2F851
:10AF8C003814C3F86415D2F83C14C3F86815D2F819
:10AF9C004014C3F86C15D2F84424C3F8702501E0B2
:10AFAC000A2AB5D0FFF70EFF48B14FF080534FF08F
:10AFBC008042D3F8583203F04F03C2F8E43EFFF757
:10AFCC0023FF48B14FF08043D3F80024D20744BF8D
:10AFDC006FF00102C3F800244FF08053D3F83021F6
:10AFEC00062A0ED1D3F83431033B042B02D83B4A4A
:10AFFC00D35CBBB13A4AD2F83C3743F48063C2F815
:10B00C003C374FF08053D3F830210A2A0AD1D3F8B9
:10B01C0034313BB14FF08042D2F8E43E43F00F03A1
:10B02C00C2F8E43E4FF08053D3F83021062A0FD1FA
:10B03C00D3F83431033B042B02D82A4AD35C3BB1FE
:10B04C004FF01023D3F808224FF08043C3F8582553
:10B05C004FF01021D1F80032002B03DBD1F8043271
:10B06C00002B17DA204901234FF01020C1F80435CA
:10B07C001524FFF7DDFEC0F80042FFF7D9FEC0F83B
:10B08C000442FFF7D5FE0023C1F80435FFF7D0FECC
:10B09C00FFF786FED1F80C32DB070DD512480123E1
:10B0AC00C0F804350024FFF7C3FEC1F80C42FFF7CB
:10B0BC00BFFEC0F80445E9E70C4B0D4A1A6010BD01
:10B0CC000030014000C007400DF0ADBA00ED00E0CB
:10B0DC0000500040F0EC010000C00040F5EC010015
:10B0EC0000100040FAEC010000E00140F01A0020D2
:10B0FC000090D00338B5074C051E04F1080318BFA7
:10B10C001C4623682BB11A6822605B682846984756
:10B11C00F7E738BDCC21002020B9054B01225A702D
:10B12C00FFF7E8BF012802D1014A9070F8E7704799
:10B13C00C421002020B9034B01225A70FFF7DABF5B
:10B14C00704700BFC421002038B50E4C2378B3B92A
:10B15C000D486360A3602361E36000F075F8054659
:10B16C0001F09CFD08B900F07BF801232370074B1C
:10B17C00D3F800340BB10123A370284638BD8525C4
:10B18C00F5E700BFC421002025B1010000000140FB
:10B19C0037B50D4C00230DF107008DF80730FEF785
:10B1AC00DDFFE368013BE360E36833B9074BD3F899
:10B1BC00005415B900F066F8A5709DF80700FEF76D
:10B1CC00F1FF03B030BD00BFC421002000000140DE
:10B1DC00012813B50CD0032820D038B9134B012209
:10B1EC00C3F88020BFF34F8FBFF36F8F02B010BD39
:10B1FC000F4C00230DF107008DF80730FEF7AEFF62
:10B20C0023780BB9FFF7A0FFE3689DF80700013323
:10B21C00E3600123A370FEF7C5FFE7E700F020F819
:10B22C0002B0BDE81040FFF7B3BF00BF00E100E083
:10B23C00C421002000F18040002382B00360036829
:10B24C000193019B02B07047044B0246187918B960
:10B25C001A6001229A80704785207047D8210020FF
:10B26C00074B1A68D20704D4C02283F800230122AA
:10B27C001A604FF080430122C3F81825704700BFB5
:10B28C0000E100E04FF0804208B50223C2F8083319
:10B29C004FF48270FFF7CEFF0123D360D2F818343D
:10B2AC00DB03FBD408BD00004FF0804110B5D1F892
:10B2BC00003163B14FF48070FFF7BCFF0D4B587930
:10B2CC000122C1F8082310B95A711B6898474FF036
:10B2DC008042D2F8043163B14FF48270FFF7AAFFB9
:10B2EC000223C2F80833034BBDE810401B68012051
:10B2FC00184710BDD821002000F1804000F5C04057
:10B30C00002382B0036003680193019B02B0704775
:10B31C00800000F1A040D0F8002722F44032C0F8A1
:10B32C000027D0F8003743EA0143C0F800377047D4
:10B33C002DE9F74F00244E4D01944FF480720121FA
:10B34C0002F1804303F5C04390B21B68012B06D178
:10B35C00D5F804330B4202D0FFF7CEFF0C43043276
:10B36C00B2F5907F4FEA4101EAD1414BD3F87C31E1
:10B37C00012B0CD14FF4BE70FFF7BEFF4FF0A04372
:10B38C0044F00044D3F820250192C3F82025E3B201
:10B39C00D3B1384F00250126344210D0AB0003F155
:10B3AC00804303F5C043D3F81005D3F8101557F8B4
:10B3BC00253023B1C1F30141C0F304209847013576
:10B3CC00082D4FEA4606E7D1002C48DA294D4FF0FC
:10B3DC00A048294E4FF00009012716F9013B5A1CD1
:10B3EC0031D0C3F3C20208326A44DCB212F8042C26
:10B3FC0003F03F0A03F0070307FA03F31A4222D0C3
:10B40C000AF5E073504658F82330C3F3014BBBF1F7
:10B41C00020F0CBF03210221FFF77AFF07FA0AF390
:10B42C00C8F8203505EB0A0393F9303055F8233072
:10B43C004BB1A109032904D0BBF1020F12D1012990
:10B44C0001D15046984709F10109B9F1040FC4D153
:10B45C00D8F820350193C8F82035002BB9D103B0AA
:10B46C00BDE8F08FBBF1030FEDD10229E8E700BF77
:10B47C0000600040E021002030220020014B1B68BE
:10B48C00184700BF3C2200200E4B984237B50C46A3
:10B49C0002D0002003B030BD00230DF107008DF861
:10B4AC000730FEF75BFE084B1D7915B901221C60B5
:10B4BC001A719DF80700FEF775FE002DE9D01120DA
:10B4CC00E8E700BF002000403C2200204FF0402362
:10B4DC0082B0D3F81821EAB10022C3F81821D3F8AE
:10B4EC0018310193019B0C4BD97FFF2907D0987F12
:10B4FC0001228A404FF0A04148B1C1F80C2500222E
:10B50C005A771A72D3E90021044802B01047C1F8E7
:10B51C000825F4E702B07047442200204C2200209A
:10B52C002DE9F74F90F80480644E01924FF02409F6
:10B53C0009FB08F906EB090B9A469BF81C300746E9
:10B54C000C46002B40F0B58005685D492846FFF796
:10B55C009BFF002840F0AF80019B46F80930CBF8E8
:10B56C0004A094F800E094F80CC04FF0A042012322
:10B57C0003FA0EF3BCF1010F94BFC2F80C35C2F8FC
:10B58C0008350EF5E073012142F823106378FF2B88
:10B59C001FBF9940C2F80C1503F5E0714FF0030979
:10B5AC0018BF42F82190A27808BF4FF0FF33FF2A52
:10B5BC001FBF02F5E0714FF0A04A4FF0040B4AF8A0
:10B5CC0021B04FF0240101FB086618BF914686F8A4
:10B5DC002020E2783949F27708BF4FF0FF39FF2A73
:10B5EC0017D094F804A04FF0010B0BFA02FB4FF0AC
:10B5FC00A046BAF1000F4ED0C6F80CB502F5E072B9
:10B60C004FF0030B46F822B0242202FB081282F8FA
:10B61C001EA0C5F808E5C5F80C35A368C5F810954B
:10B62C00C5F82435637B003B18BF0123BCF1020F26
:10B63C0034D0BCF1030F34D0BCF1010F01D143F075
:10B64C000203C5F85435A379C5F8C0350723C5F8EE
:10B65C000035019BABB13B68627943F3073552016E
:10B66C00002DC3F30733D2B21EDB164C661986F8D5
:10B67C00002301226D0903F01F0302FA03F344F8BF
:10B68C002530242303FB081100234B7701230B7770
:10B69C0003B0BDE8F08FC6F808B5AFE743F004037C
:10B6AC00CFE743F00603CCE7074C03F00F03E2545B
:10B6BC00E7E70820ECE71120EAE700BF442200206E
:10B6CC00D9B4010000E100E014ED00E02DE9F341F4
:10B6DC000779474E24237B431446F2180D46517FBD
:10B6EC008646002940F08180F35823B114F0140FE2
:10B6FC0004BF0123537795E80F004FF0240C0CFB8B
:10B70C00076C0CF10C0888E80F009CF81F20FF2A2E
:10B71C0008D09CF81E10012393404FF0A042C1B1F9
:10B72C00C2F80835296821B101F06043B3F1005F1C
:10B73C0006D1AA6882B102F06043B3F1005F0BD06E
:10B74C00242303FB076600237377102002B0BDE8A7
:10B75C00F081C2F80C35E5E7DEF800306868C3F814
:10B76C004415C3F84805E968C3F834250022C3F82A
:10B77C003815C3F81821D3F818210192019A14F046
:10B78C00010218BF0122C3F8502514F0020218BFA1
:10B79C000122C3F8402522075CBF01221A61242232
:10B7AC007A43B258B2B9D3F81821002AFBD024231B
:10B7BC0003FB0766F27FFF2A07D0B07F012393407B
:10B7CC004FF0A04218B1C2F80C350020BEE7C2F809
:10B7DC000835BBE714F004004FF0400202D0C3F868
:10B7EC000823F2E7C3F80423B0E71120AEE700BF4B
:10B7FC00442200206CDF704776DF70477ADF704799
:10B80C007CDF70477FDF70478FDF7047B1DF704799
:10B81C0062DF70477047FEF755BA000070B500251F
:10B82C0088B01C4616462946152202A8019502F03E
:10B83C00F0FA2246314601A802F0C2FA9DF8043013
:10B84C00302B0ED0212B15D1BFF34F8F1D491E4B22
:10B85C00CA6802F4E0621343CB60BFF34F8F00BFA2
:10B86C00FDE728222946194802F0D3FA01F0FAFC28
:10B87C0008B070BD9DF817302E2B17D004F11F03A4
:10B88C006B4413F81C2C2D2A16D1104803F81C5CA1
:10B89C0001A902F001FA0D4801F09CFC0B4828228A
:10B8AC00294608B0BDE8704002F0B3BA132201A9D2
:10B8BC00064802F057FADBE7262AEFD103F81C5CA6
:10B8CC0001A8E9E700ED00E00400FA05AB23002035
:10B8DC0038B5054D322445F001054FF47A40A847A0
:10B8EC00013CFAD138BD00BF60ED010070B5058890
:10B8FC00212D86B0044600F0AC8008D8112D12D052
:10B90C00132D00F09E80102D2DD006B070BD522D41
:10B91C0000F0AE80562D01D03B2DF6D1A08813211E
:10B92C00FFF76AFF70E001F0E5FC1C2001F0F1FC70
:10B93C00FFF7CEFF01F0DEFCFFF7CAFF1E2001F07F
:10B94C00E8FCFFF7C5FF01F0D5FCFFF7C1FF19209C
:10B95C0001F0DFFCFFF7BCFF01F0CCFC06B0BDE84A
:10B96C00704001F0C7BC464E838846483380112294
:10B97C00002102F04EFA00238DF81030D4F8093073
:10B98C00CDF81130B4F80D30ADF815309DF81130FC
:10B99C0003939DF8123002939DF8133001939DF898
:10B9AC0014309DF816203849009336489DF8153010
:10B9BC0002F05CF9334935482A4602F0AFF958BB1E
:10B9CC0001F098FC1E2001F0A4FCFFF781FF01F0B0
:10B9DC0091FCFFF77DFF1C2001F09BFCFFF778FF2B
:10B9EC0001F088FCFFF774FF192001F092FCFFF7BF
:10B9FC006FFF01F07FFC01F07DFC1E2001F089FC43
:10BA0C003188234800F0A2FE00283FF47EAF06B038
:10BA1C00BDE87040FEF756B90A25192001F079FCF3
:10BA2C00FFF756FF01F066FCFFF752FF013DF4D122
:10BA3C00A0881321FFF7E0FE0028DCD0FEF742F9C6
:10BA4C00D9E70F4800231A4685210088FFF7DAFE54
:10BA5C00DAE7002380888DF8103004A98DF81130B6
:10BA6C00FFF7D2FE00283FF450AFFEF72BF94CE75E
:10BA7C00034800231A4619460088FFF7C7FEC3E7A0
:10BA8C00061B0020682200202BED0100F41A002078
:10BA9C009823002000B54FF48041B3B00020FDF78F
:10BAAC00FBFD08B1FEF70EF9FDF736FD01F0AAFC1F
:10BABC0008B1FEF707F901F079FCFEF7E3F908B1DC
:10BACC00FEF700F9FFF78CF808B1FEF7FBF801F070
:10BADC00A7F808B1FEF7F6F8002307A90120079391
:10BAEC0001F02AF908B1FEF7EDF807A801F0C6F944
:10BAFC0008B1FEF7E7F811234B498DF80C300322FF
:10BB0C0003A8FFF77DFE08B1FEF7DCF80023ADF8C3
:10BB1C0020305023ADF81C30A023ADF81E3007A800
:10BB2C00C823ADF82230FFF769FE08B1FEF7CAF85A
:10BB3C003E48002100F012FD08B1FEF7C3F83C4866
:10BB4C00982383702323C3706623037133234371BB
:10BB5C00FF2383710378012262F347034270037061
:10BB6C00FFF748FEAC22002107A802F052F9314B36
:10BB7C0003AC03F1100518685968224603C2083358
:10BB8C00AB421446F7D10DF1070103A8FFF740FEB5
:10BB9C0008B1FEF797F89DF807208DF80A200222CD
:10BBAC008DF81C2040F20162ADF81E20012200230A
:10BBBC0002A9ADF82C208DF898204FF49672CDE99F
:10BBCC002923ADF808300C911B4B1C48309307A966
:10BBDC0000F037FE08B1FEF775F81848012100F0A7
:10BBEC002DFE174B1748079307A900F09DFD08B1D0
:10BBFC00FEF768F8144B1548039303A901F0E6FE11
:10BC0C0008B1FEF75FF801F075FB0C48032100F05A
:10BC1C0088FE08B1FEF756F8FDF790FD0028FBD121
:10BC2C00FEF7F4FFF8E700BF3DED0100882300208C
:10BC3C00A423002041ED010021B801007C2200204A
:10BC4C0023B801009823002029B801007423002098
:10BC5C000369C26893429CBF80681B18013B981A09
:10BC6C0070472DE9F843D0E902940546A9EB040886
:10BC7C004068904520440F46144404D902F0A0F8C3
:10BC8C00EC60BDE8F8834246A4EB090402F098F896
:10BC9C006868224607EB0801F0E72DE9F843C56810
:10BCAC000646894617464FF000083469B368706839
:10BCBC00A54228BFE418013C621B5C1BBC4228BF98
:10BCCC003C46944228BF144649462844224602F07A
:10BCDC0077F8B3682544AB4208BF00253F1BA0444E
:10BCEC00A144F560E1D14046BDE8F88310B5114C94
:10BCFC00114AA2610223C4E90433104BE361A2642C
:10BD0C004FF400730E4A0F492362E26400231022A1
:10BD1C00E01DA3626362E362A3656365E36522656C
:10BD2C0002F0AAF80849204602F0A6F82023A371D5
:10BD3C0010BD00BFD423002066ED01005C24002060
:10BD4C004C2400206FED010073ED010070B5164B13
:10BD5C00182400FB04451D4404FB00331646DC6A22
:10BD6C00012C0ED0022C18D0E4B92846FFF770FF36
:10BD7C00864204D832462846FFF773FF34462046E5
:10BD8C0070BD2846FFF764FF8642344628BF044640
:10BD9C0022462846FFF765FFF1E72846BDE87040CC
:10BDAC00FFF77BBF0024EAE7D4230020FFF79EBFF8
:10BDBC006DDF704779DF70477DDF704764DF704758
:10BDCC002DE9F04F85B000250E9CBDF83CB0B4F8C1
:10BDDC0000A00191074690461E46A9463A884A455E
:10BDEC000DDC45B12388013BA3EB0A039BB2FF2B6F
:10BDFC003AD806F80A30002005B0BDE8F08F7A6812
:10BE0C0052F82900039000220DF10B0103A8FFF753
:10BE1C00D5FF0028F0D19DF80B20424521D1228876
:10BE2C00002D14BF0020022002EB080101445945EB
:10BE3C001ADC3DB9013292B2019B2280B3542288A4
:10BE4C000132228022880DF10B01324403A8FFF746
:10BE5C00B5FF0028D0D121889DF80B200A44228000
:10BE6C00012509F10109B9E70C20C5E72DE9F341DA
:10BE7C00089FBDF824801546CDE9007802220446BF
:10BE8C001E46FFF79DFF50B9334610222946204627
:10BE9C00CDE9087802B0BDE8F041FFF791BF02B0E0
:10BEAC00BDE8F0812DE9F04F00231788138090F83E
:10BEBC002D3085B006460D4614465BB3082F01D8CD
:10BECC000C2028E102A8FFF773FF002840F0238123
:10BEDC002388DDF809100822EA54238801339BB229
:10BEEC001B222380EA54238801339BB2EA18238057
:10BEFC00E950BDF80D30938023889DF80820063357
:10BF0C009BB212F0FE0218BF01222380EA54238850
:10BF1C0001332380B378FBB123880433BB42CFD8E1
:10BF2C0002A8FFF747FF002840F0F5802388032282
:10BF3C00EA54238801339BB219222380EA542388C4
:10BF4C00BDF8082001339BB2E9182380EA54120A89
:10BF5C004A70238802332380F2789AB12388D91C43
:10BF6C00B942ADD80221E954238801339BB2012197
:10BF7C002380E95423880B449BB22380EA54238802
:10BF8C000B4423807268AAB12388D91CB94297D874
:10BF9C00022192F90020E954238801339BB20A2133
:10BFAC002380E954238801339BB22380EA542388ED
:10BFBC00013323803389002B40F0A180338A5BB19D
:10BFCC00CDE900472B460722032106F11000FFF7AD
:10BFDC004DFF002840F09F80338B5BB1CDE90047CB
:10BFEC002B461522142106F11800FFF73FFF0028FD
:10BFFC0040F09180326A002A40F09080D6F824807C
:10C00C00B8F1000F30D0B8F804302188981C8A1C85
:10C01C000244BA423FF654AFFE283FF651AF033309
:10C02C006B54238801339BB2FF222380EA5423886C
:10C03C0001339BB22380B8F80020EA54E918120AA5
:10C04C004A702088023080B22080B8F804205AB19F
:10C05C00D8F8081000296BD0284401F0B1FE2388D1
:10C06C00B8F804201344238096F82C30002B40F0B1
:10C07C009880307800284ED03388012B58D02288F5
:10C08C0002F1020CBC453FF61BAF012805D17378B9
:10C09C00023313449F42FFF413AF023FBF1ABFB2E7
:10C0AC0002A905EB0C00ADF80870FFF785FE90BBFC
:10C0BC003178BDF80830022900F0B98072789A42C4
:10C0CC0002D39F4280F0B180012940F0B2809742A8
:10C0DC0093B2C0F0AE80ADF808300821BDF808303E
:10C0EC00FE2B3FF6EDAE22880133AB542288013291
:10C0FC0092B22280A9542288134423800BE0CDE90C
:10C10C0000472B460622022106F10800FFF7AEFE7F
:10C11C0000283FF453AF05B0BDE8F08FB4F800C071
:10C12C000CF10603BB423FF6CBAE1188052901D8B2
:10C13C000720F0E76FF4486E01EB0E039BB24FF251
:10C14C007D3E7345F4D95388052BF1D96FF44860C3
:10C15C00181880B27045EBD94FF6FF70814201D0B0
:10C16C009942E5D8052305F80C30238801339BB29E
:10C17C0012212380E954238801339BB22380118838
:10C18C00E954E818090A4170238802339BB22380D2
:10C19C005288EA54E918120A4A7023880233238021
:10C1AC002CE7B36A002BC3D04FF000084FF00C0AF9
:10C1BC004FF0160BB16A5FFA88F20AFB02F201EB40
:10C1CC000209B9F80430981CFE283FF679AE208895
:10C1DC0003332B54238801339BB2238005F803B01F
:10C1EC00238801339BB223808A5AEA54E918120A35
:10C1FC004A702088023080B22080B9F804205AB1ED
:10C20C00D9F80810002993D0284401F0D9FD2388CF
:10C21C00B9F804201344238096F82C2008F1010867
:10C22C005FFA88F39A42C5D823E7092156E79F4263
:10C23C00FBD2ADF8087050E730B5C8B1F2B10024AC
:10C24C00651C8D4206DA1588A54212D805196D7841
:10C25C009D420ED1A14211D9005D48B1013880B286
:10C26C0030B10234A3B210FA84F4A14206DB13807D
:10C27C0030BD055D01352C44A4B2E1E70020F7E7A1
:10C28C0013B513460022ADF806200DF10602044644
:10C29C00FFF7D2FF10B1BDF80600204402B010BD6C
:10C2AC00034B1A8882420CBF18460020704700BF0F
:10C2BC0078260020024B9B6903B11847704700BFDA
:10C2CC005C26002013B50B46497A02460E4871B91C
:10C2DC00D0E901101C7A002C18BF01465868FDF7F4
:10C2EC0003FE78B102B0BDE81040FFF7E3BF0021B8
:10C2FC001972436933B101218DF80410ADF8062091
:10C30C0001A8984702B010BD5C2600204B8802881B
:10C31C009A4212D842889A420FD380888B8840F276
:10C32C00F311884294BF021A421A9A4205D8084463
:10C33C00984234BF00200120704700207047000055
:10C34C000388122B70B5014659D004D8102B1ED07F
:10C35C00112B44D070BD502BFCD12F4BC288DB89E4
:10C36C009A42F7D1038A022BF4D186883046FFF724
:10C37C0097FF05460028EDD001F1120000F0E6F819
:10C38C0038BB6868FDF7DEFD0028E3D009E0C37B0D
:10C39C00012BDFD14FF6FF70FFF782FF054620B966
:10C3AC000420BDE87040FFF785BF1C4A8E880680CC
:10C3BC00002303721368C0F80A305368C0F80E30BB
:10C3CC0010310A30FFF7A2FF134B6872DB89002B88
:10C3DC00C0D129463046BDE87040FFF773BF808856
:10C3EC00FFF75EFF04460028B4D04068FDF7AAFDB5
:10C3FC0008B1FFF75FFF4FF6FF732380AAE786882B
:10C40C003046FFF74DFF05460028A3D008310A300F
:10C41C00FFF77CFF6872DCE75C2600208C2600208E
:10C42C000AB1FEF799B8FEF7A0B873B50191019C5B
:10C43C0006466CB100252C46294601A8FEF79FF84C
:10C44C0018B106EB440301349D800135142DF3D152
:10C45C003046346002B070BD2DE9F0430388848807
:10C46C00103B8DB00A2B1ED8DFE803F006361D1DDD
:10C47C001D1D1D1D1D5B3D002E4FBB68DB43009336
:10C48C0079686846FEF7A7F8009901A8FFF7CDFF79
:10C49C000DF108080026019B9E4207D3132C12D9DC
:10C4AC000420FDF70FFC0DB0BDE8F08338F8029BBB
:10C4BC0000250135494607EB8500FEF756F81E2D81
:10C4CC00F7D10136E7E721461B48FEF745F81B4834
:10C4DC002146FEF741F8E6E7174821460DB0BDE8C6
:10C4EC00F043FEF742B8027A15483F2A4FEA12157C
:10C4FC00214694BF00220122FFF792FF022D94BF28
:10C50C00002201220F482146FFF78AFF012D0E4819
:10C51C0094BF0022012221460DB0BDE8F043FFF785
:10C52C007FBF037A002BBED1427A0548C2F3C0020A
:10C53C002146F1E7942600209C2600209826002016
:10C54C00AC260020A8260020A4260020008800F09D
:10C55C0001007047A5DF7047B5DF704750B14FF051
:10C56C00171303601B2303711723C160C3808360FF
:10C57C00002070470E2070472DE9FF4186880C463D
:10C58C00002E40F0A88003883A2B6AD020D8102BBC
:10C59C005DD0112B61D0A37A002B00F09C80E18838
:10C5AC000020FFF7D7FF0346002840F082804FF4AD
:10C5BC008072628149484A4A4A49801AC008E28816
:10C5CC00000440F0040004B0BDE8F041FDF70FBAE0
:10C5DC00552BE0D1424B414DC7884349ED1AED082C
:10C5EC002D0445F004083B4632464046FDF7FFF962
:10C5FC00E3883E49A672172F3A4638BF17229A4253
:10C60C0028BF1A46404622810096FDF7FAF9E188C8
:10C61C003046FFF7A1FF38B1FEF768FB34490246FC
:10C62C0045F00100FDF7DAF9E27A002AB3D1E368AC
:10C63C00002BB0D040F67721ADF80A202289ADF856
:10C64C000810ADF80C2002A920469847A3E7C37B3D
:10C65C00012BA0D10B88CB809DE71723CB808B605F
:10C66C0099E74289CB881D489A4228BF1A461C4B31
:10C67C00C01A172A4FEAD00038BF172200040A81CB
:10C68C0033461C4940F00400FDF7B1F9E3686BB187
:10C69C00E27A5AB140F67722ADF808202289ADF83B
:10C6AC000A60ADF80C2002A920469847002363814C
:10C6BC0071E711280FD0FEF719FB084B0E49024603
:10C6CC0007481B1ADB081B0443F0010004B0BDE84B
:10C6DC00F041FDF783B904B0BDE8F081E4E5010059
:10C6EC008CE501005DEE0100B5ED0100EFED010000
:10C6FC002EEE01007AED0100A2EE0100B0DF7047D2
:10C70C0066DF704710B5002104464088FFF7F8FF3C
:10C71C00034608B9237210BD112801D10123F9E792
:10C72C006368BDE81040184760B159B10378DE2B3F
:10C73C000AD00B684360DE2303704FF6FF7343800F
:10C74C00002070470E2070470820704728B10378EE
:10C75C00DE2B04D14180002070470E20704708204A
:10C76C007047F0B5054685B00C46002942D000282C
:10C77C0040D00B78DE2B3DD182884B889A4204D175
:10C78C000B7A13B10846FFF7BDFF2B88112B33D062
:10C79C00512B0FD0012B2DD12B7A012B2AD1A9880B
:10C7AC006288914226D12046237205B0BDE8F04044
:10C7BC00FFF7A8BFAE886388B3421BD1AF79022FB5
:10C7CC0018D1AD7B2B1F022B14D8002110226846E8
:10C7DC0001F01FFB052D18BF4FF4C073694630469E
:10C7EC0018BFADF804308DF80070FFF787FF08B163
:10C7FC006368984705B0F0BD6388AA889A4204BF65
:10C80C004FF6FF736380F5E772DF704773DF704795
:10C81C0038B5012204460D46B0F8D810D0F8D40033
:10C82C00FFF72EFD00B1057004F13C0204F1D401B8
:10C83C0004F15400BDE83840FFF7E6BF80F8301033
:10C84C007047F8B504460F46002966D0002864D01E
:10C85C0091F87A301BB191F89830002B5FD1D7F852
:10C86C00A030042B5BD0D7F89C30042B57D04FF062
:10C87C00000C84F802C007F178060FCE251D0FC5F9
:10C88C000FCE0FC596E8070085E8070084F830C086
:10C89C00D7F8A4306363D7F8A830A36304F1D402AB
:10C8AC004FF6FF73C4F8EAC0A4F8E830C4F8E420EB
:10C8BC00C4F8EDC022780AB984F85430224604F149
:10C8CC0055011F25C4F8D410384622F8D85FFFF75D
:10C8DC00E9FA08BB224604F19301C4F8DC1007F115
:10C8EC003C0022F8E05FFFF7DDFAA8B9A369A4F8D1
:10C8FC0048304FF480730125A4F8503063692064EC
:10C90C00014684F83C50636404F13C0204F1540089
:10C91C00FFF77AFF00B92570F8BD0E20FCE7072061
:10C92C00FAE7F8B5077804460D46002F00F0F680BC
:10C93C000023C0F8EA30C0F8ED30C388817000F1F4
:10C94C00EA060BB1012903D0E37943B1022D06D1DC
:10C95C00636BABB1012284F8F1200820984704F1F5
:10C96C00EB0304F1F10113F8012B12B99942FAD13E
:10C97C0017466B1E032B4ED8DFE803F0050B0F1286
:10C98C0084F8F130EBE7A3791BB194F8243003B9A8
:10C99C005FB9E3790BB1002F3FD1237A002B3ED145
:10C9AC00637A002B0CBF00250425636BA570002B4C
:10C9BC0037D0033D012D34D8627992B394F8F2202C
:10C9CC007ABB84F8F420012284F8F32007209847DE
:10C9DC0004F13C0518220021284601F01AFAE26AFB
:10C9EC00531E0121022B94F8243084F83C1028BFEC
:10C9FC000A4684F8512033B1A36A5A1E022A28BF72
:10CA0C000B4684F85230A378042B1CD8DFE803F0D3
:10CA1C006D0D233353000025C7E70225C5E7032519
:10CA2C00C3E7002384F8F330D2E7012384F83130D4
:10CA3C000023C4E91063C4F8E430022384F83C30CA
:10CA4C008023A4F84830A378002B52D1636B002BC1
:10CA5C0060D100205DE0022384F83130032384F898
:10CA6C003C302369A4F848300023C4F8E430E36870
:10CA7C0026646364E7E763696364A369A4F84830D8
:10CA8C006379B3B194F8F2309BB994F8F43083B174
:10CA9C00022384F8503004212046FFF7B9FE002809
:10CAAC00D1D1052384F8313004F1D403C4F8E43037
:10CABC00C9E70323F6E7E3696364236AA4F8483003
:10CACC00637983B194F8F2306BB994F8F43053B1C4
:10CADC00022384F8503004212046FFF799FE0028E9
:10CAEC00B1D10623DEE70423DCE7002384F83130E0
:10CAFC00A9E7D4F8E4102A4604F15400FFF784FEA9
:10CB0C0038B994F8301094F85400FFF77FFE0028E1
:10CB1C009CD0F8BD94F8310098479AE70820F8E7C4
:10CB2C000388112B10B50C460AD0262B1FD0102BC6
:10CB3C0005D1C37B012B02D18388A1F8E83010BD4D
:10CB4C000022838881F8F220B1F8E8209A42F6D1CD
:10CB5C000B79002BF3D101212046FFF7E2FE0028D0
:10CB6C00EDD0A36B002BEAD0BDE810401847037A38
:10CB7C00013B012BE3D8897805230131B1FBF3F399
:10CB8C0003EB8303C91AC9B2E6E710DF7047000054
:10CB9C0013B5044609496846FEF74DF8019808B9E3
:10CBAC0002B010BDD0E900312046984718B1684654
:10CBBC00FEF74BF8F2E71120F2E700BFECEE0100B4
:10CBCC0013B5044607496846FEF735F8019B0BB9C7
:10CBDC0002B010BD2046D3E9002190476846FEF70D
:10CBEC0034F8F3E704EF01000B4991F816335A09B6
:10CBFC00EC231341DB0706D5084B9A683AB94FF47E
:10CC0C0080030B60704742F20200FDF75BB81A68B4
:10CC1C0042F480021A60704700E100E09421002089
:10CC2C00F7B5194F3C7864BB184E0125204635707A
:10CC3C00FFF7AEFF112821D02046FFF7C1FF144BA0
:10CC4C008DF80340186801900DF10300FDF786FA8A
:10CC5C00104901A8FFF799FF0446B0FA80F040098B
:10CC6C0038709DF80300FDF79DFA3CB90A4B3470FF
:10CC7C001C70FFF7B9FF2846FFF7A2FF204603B050
:10CC8C00F0BD0824FAE700BF112700201027002070
:10CC9C00E8EE0100ED9C010012270020014B1878F2
:10CCAC00704700BF1127002007B508496846FDF7FB
:10CCBC00C2FF019B13B903B05DF804FBD3E900205C
:10CCCC0090476846FDF7C1FFF3E700BFF8EE01009F
:10CCDC00FFF7EABF60DF704769DF704761DF7047BD
:10CCEC0030B5134B1B7891B0FBB1124D34240DF1C0
:10CCFC00020103A8ADF80240FFF7F0FF70B9294616
:10CD0C0001A8FDF798FF029B002BF0D003A8D3E9F4
:10CD1C000021904701A8FDF798FFF4E7052804D0FF
:10CD2C0011B0BDE83040FCF7CDBF11B030BD00BF35
:10CD3C001327002048F1010030B50C4685B00029BE
:10CD4C0000F089800023CDE90133444A0393012389
:10CD5C000A608DF804008DF8063001A90623202006
:10CD6C00ADF80830FFF7B8FF60B1FDF7BFFF3C4BE3
:10CD7C003C4902463C481B1ADB081B0443F00100EB
:10CD8C00FCF72CFE0023CDE9013303932268012329
:10CD9C0001A940208DF80530FFF79EFF60B1FDF72B
:10CDAC00A5FF2F4B314902462F481B1ADB081B04E9
:10CDBC0043F00100FCF712FE0023CDE9013303938D
:10CDCC0022680A2301A901208DF80430FFF784FFA3
:10CDDC0060B1FDF78BFF224B2549024622481B1AF6
:10CDEC00DB081B0443F00100FCF7F8FD0023CDE940
:10CDFC00023322684FF4B06301A9A1200193FFF71D
:10CE0C006BFF60B1FDF772FF154B1A4902461648CD
:10CE1C001B1ADB081B0443F00100FCF7DFFD0025A7
:10CE2C002268039501A9A020CDE90155FFF754FF15
:10CE3C00034668B1FDF75AFF094B0F4902460A48F1
:10CE4C001B1ADB081B0443F00100FCF7C7FD2B4643
:10CE5C00184605B030BD0E23FAE700BFE01A0020DB
:10CE6C00F4E5010010EF01008CE5010056EF010024
:10CE7C00A2EF0100EEEF01003FF00100F8B506460D
:10CE8C000768FFF727FF3368BB4205461DD91948D1
:10CE9C00194C1A49241AE408240444F002042046CC
:10CEAC00FCF798FD336816493A462046FCF79FFD7F
:10CEBC004FF080533268D3F80C3112499B0203F1C6
:10CECC0000539A1A2046FCF789FD25B90E4B012216
:10CEDC001A702846F8BD2846FDF708FF064B0B498B
:10CEEC00024604481B1ADB081B0443F00100FCF744
:10CEFC0075FDEEE78CE50100F4E5010092F0010010
:10CF0C00C1F00100F2F00100132700201CF1010018
:10CF1C004BDF70471FB50E4C01A8FFF7F9FF70B936
:10CF2C00214602A8FDF787FE039B002BF4D0019845
:10CF3C00D3E90021904702A8FDF787FEF4E7052806
:10CF4C0004D004B0BDE81040FCF7BCBE04B010BD6A
:10CF5C0060F1010038B5054D044645F001054FF46C
:10CF6C007A40A847013CFAD138BD00BFA0F10100BE
:10CF7C004FF0A0430322C3F828274FF48062C3F874
:10CF8C000825704707B540688DF80710002100F0A0
:10CF9C0067FA01210DF1070000F08EFA03B05DF87D
:10CFAC0004FB07B540688DF80710012100F058FA12
:10CFBC0001210DF1070000F07FFA03B05DF804FBCE
:10CFCC0010B50446E06800F05BFA0128FAD010BDF9
:10CFDC0010B500210446006800F042FAC82000F0A9
:10CFEC005DFA2068012100F03BFABDE81040C82032
:10CFFC0000F054BAF8B502230126C0E90063002200
:10D00C000323C0E9022380274FF49473C0E904730F
:10D01C00044600F075FA0546002879D12046FFF742
:10D02C00D7FF2046FFF7CCFF12212046FFF7AAFFBF
:10D03C002046FFF7C5FF31462046FFF7A3FF272107
:10D04C002046FFF7AEFF31462046FFF7AAFF2946E0
:10D05C002046FFF7A6FF11212046FFF793FF31462C
:10D06C002046FFF79EFF44212046FFF78BFF294601
:10D07C002046FFF796FF0F212046FFF792FF452130
:10D08C002046FFF77FFF27212046FFF78AFF314616
:10D09C002046FFF786FF29462046FFF782FF2946E8
:10D0AC002046FFF77EFF3C212046FFF76BFF052152
:10D0BC002046FFF776FF18212046FFF763FF39461D
:10D0CC002046FFF76EFF21212046FFF75BFF294624
:10D0DC002046FFF766FF39462046FFF762FF4E21D8
:10D0EC002046FFF74FFF29462046FFF75AFF4F21F6
:10D0FC002046FFF747FF27212046FFF752FF204627
:10D10C003146FFF74EFF2046FFF75AFF2846F8BD81
:10D11C004FF0FF35FAE72DE9F8430F462621044678
:10D12C00FFF730FF4FF49476102500212046FFF7CF
:10D13C0038FF013DF9D1013EF6D124212046FFF7FD
:10D14C0021FF6FF0020540F2251907EB05180026A8
:10D15C00B5F5917F34BF18F80610FF212046013633
:10D16C00FFF71FFF102EF3D101354D45EDD12046B1
:10D17C002221FFF707FF2046F721FFF712FF204679
:10D18C002021FFF7FFFE2046BDE8F843FFF718BF4C
:10D19C0010B510210446FFF7F5FE20460121FFF7DC
:10D1AC0000FFBDE810406420FFF7D4BE10B5074C5B
:10D1BC002046FFF70DFF204605490022FFF7ABFF85
:10D1CC002046BDE81040FFF7E3BF00BF3439002014
:10D1DC0014270020F0B51D4B1D4F85B006460122CB
:10D1EC00FF201A7000F02AFA802296230093114631
:10D1FC001848002300F0BAFB00240223CDE90143B8
:10D20C002823FF25194600948C220A2000F090FA5E
:10D21C00114B124A019400950F210A2000F060FB7B
:10D22C003B463246CDE9005432210A2000F058FB2F
:10D23C00CDE900540A4A3B4612686421F02000F004
:10D24C004FFB05B0BDE8F040FFF7B0BF051B002059
:10D25C001C1B0020E6FA0100241B00206CF10100CD
:10D26C00081B00207FB51C4B1C4E0024FF201C709B
:10D27C0000F0E4F9802296230093114623461848C7
:10D28C0000F074FB0223CDE901432823FF25194646
:10D29C000094A0220A2000F04BFA124B124A01947F
:10D2AC0000950F210A2000F01BFB3346CDE90054FA
:10D2BC000E4A32210A2000F013FBCDE900540C4A2F
:10D2CC00334612686421F02000F00AFB04B0BDE87C
:10D2DC007040FFF76BBF00BF051B00201C1B00201C
:10D2EC00A6F10100241B002075F101007FF1010063
:10D2FC00081B00204FF0A0434FF00072C3F8082524
:10D30C004FF08052C3F808254FF08042C3F808252F
:10D31C007047012303FA00F04FF0A043C3F818053F
:10D32C00C3F80C057047F8B54FF0A0444FF00077E8
:10D33C004FF080564FF08045C4F81875C820C4F8DB
:10D34C001865C4F81855C4F80875C4F80865C4F80D
:10D35C000855C4F80C75FFF7FDFDC820C4F8087516
:10D36C00FFF7F8FDC820C4F80C65FFF7F3FDC820E3
:10D37C00C4F80865FFF7EEFDC820C4F80C55FFF79C
:10D38C00E9FDC820C4F80855FFF7E4FDC4F80C7596
:10D39C00C820C4F80C65C4F80C55FFF7DBFDC4F8C5
:10D3AC000875C4F80865C4F80855F8BD37B5134CB2
:10D3BC00FFF7DEFDFF25FFF7B6FF00F03FF8104842
:10D3CC00FFF718FE204600954FF487734FF49172C7
:10D3DC00802100F0AFF84FF487734FF491728021E5
:10D3EC000095002000F0A6F8022000F0C7F82046B7
:10D3FC0003B0BDE8304000F0BBB800BF14270020DC
:10D40C00343900201FB50B4B0FCB6C4684E80F0052
:10D41C0040F60E43ADF8003009238DF803304FF081
:10D42C008053029300231A4621460348FDF786FCDD
:10D43C0004B010BDB8030200D80302004FF0A043A3
:10D44C00402120220C20C3F81815C3F81825C3F866
:10D45C001007C3F80C15C3F80C25D3F8103570471A
:10D46C00064B53F82020012393404FF0A042012992
:10D47C000CBFC2F80835C2F80C3570474C39002087
:10D48C00054A4FF0A04352F82000D3F8103523FA88
:10D49C0000F000F0010070474C39002038B504460C
:10D4AC0038B1044D45F001054FF47A40A847013CD2
:10D4BC00FAD138BDD003020030B50F4D2B6885B0C2
:10D4CC004FF0A0420124C9B204FA03F3C2F80C35A0
:10D4DC0000900191002209486946CDE90222FEF72D
:10D4EC00F5F808B1FCF7EEFB2B689C404FF0A0431D
:10D4FC00C3F8084505B030BD4C390020DC030200F0
:10D50C00074A084B12681A60074A12685A60074AA1
:10D51C0012689A60064A1268DA600020704700BFF1
:10D52C00101B00204C390020181B0020141B00205D
:10D53C000C1B002010B50D4C2060BDF80800A0811C
:10D54C0011F0070F4FEAD10018BF013060820020A4
:10D55C0021816281A282E38120820BB1B42B02D1A2
:10D56C00A180E28010BDA280E180FBE75C39002045
:10D57C00014B1860704700BF5C39002003289CBF2A
:10D58C00014B1882704700BF5C3900202A4B30B524
:10D59C009C88844209D3DC888C4206D3DC89B42C69
:10D5AC0019D003D884B15A2C09D030BDB4F5877F7B
:10D5BC00FBD15C89013C241A0846A1B204E01C8909
:10D5CC00013C641A0146A0B21C8A032CEDD8DFE89A
:10D5DC0004F00F0B2B271C89013C201A5C89013CA1
:10D5EC00611A80B289B2EFE71C89013C201A80B223
:10D5FC001C898442D9D35C898C42D6D35D8AC0F312
:10D60C00CF0401FB054100F007001C68802343FA9E
:10D61C0000F040B2635662B923EA00036354C4E7D6
:10D62C001C89013C201A80B25C89013C611A89B2C8
:10D63C00DEE70343F2E700BF5C390020F0B50B498D
:10D64C0000238C8A9AB294420CD8F0BD0C6897B225
:10D65C0005FB06440132E0554D8A94B2A542F5D83B
:10D66C000133EEE700229EB2F6E700BF5C390020E2
:10D67C002DE9F74F1C462D4B0D46998881420646E5
:10D68C0013D3DB88AB4210D39DF83030012B47D13C
:10D69C00A3B267000093013F4FF00008031B0FFA81
:10D6AC0088FBBB451FFA88F920DB03B0BDE8F08F7F
:10D6BC0006EB0B00001B002815DB6818001B00286C
:10D6CC0011DB0193009BE81A1FFA81FA10FA81F121
:10D6DC0089B21FFA89F0FFF759FF0AF10101019B8A
:10D6EC0009B2B942E4DB08F10108D8E700219944FA
:10D6FC00F7E737440021BFB21FFA81F915FA81F11F
:10D70C0089B23846FFF742FF09F1010109B28C4298
:10D71C00F2DC08F1010844451FFA88F7E9DCC4E79C
:10D72C004FF00008013D461EF5E700BF5C390020B4
:10D73C002DE9F04F16463B4A8BB094881F46BDF836
:10D74C005030079384429DF8543003938B469DF8D8
:10D75C00583063D3D2888A4260D3B4425ED3BA4283
:10D76C005CD3A6EB0008A7EB0109B8F1000FB8BF1A
:10D77C00C8F10008B9F1000FB8BFC9F10009C9F12F
:10D78C0000020492B04234BF01224FF0FF320592E6
:10D79C00B94234BF01224FF0FF320692A8EB0905C3
:10D7AC000024039A0134012A5FFA84FA2AD1032255
:10D7BC00BAFBF2F404EB4404AAEB040414F0FF04E7
:10D7CC0020D1039A00925946FF2209930890FFF743
:10D7DC004FFFDDE90803049AB2EB450F06DC8642E5
:10D7EC001CD0059A1044A5EB090580B2B8EB450F87
:10D7FC00D7DB5F4512D0069A0BEB020145441FFAAA
:10D80C0081FBCEE7012200925946079A09930890B2
:10D81C005446FFF72DFFDDE90803DCE70BB0BDE84C
:10D82C00F08F00BF5C3900202DE9F74F1C462B4BC5
:10D83C0001919988BDF83090BDF834A0814205461D
:10D84C0015D3DB8801998B4211D3A18811F0070302
:10D85C0018BF012303EBD103E188203A4A43216826
:10D86C00002702FB0316E288B9B28A422FD803B014
:10D87C00BDE8F08F00F007030093009A96F800C003
:10D88C00802343FA02F2B9F1FF0F02EA0C0216D11F
:10D89C002AB128445246594680B2FFF777FE009BC6
:10D8AC00072B08BF013608F10108A2881FFA88F07F
:10D8BC009042DFD3530718BF01360137D3E7284412
:10D8CC0080B212B152465946E7E74A46FBE7019B44
:10D8DC0019444FF000081FFA81FBE6E75C39002081
:10D8EC002DE9F04FDFF880908846B9F8041085B028
:10D8FC008142BDF838A0BDF83CB0074609D3B9F851
:10D90C000610414505D3561E4446054616F8012F10
:10D91C0012B905B0BDE8F08F9888B9F804C0D98861
:10D92C0028446045C4BF6418A4B2B9F8060004EBDF
:10D93C00010CC8BF3D46844516F8010CC4BF4446D3
:10D94C003D465E2802BF6418A4B23D465E2A07D04D
:10D95C00CDE900AB214628460393FFF765FF039BF7
:10D96C009A881544ADB2D1E75C39002000292DE925
:10D97C00F045B8BF0731114FC9104FF0000E1FFA18
:10D98C008EF4944218DA079D05EB040C4FEA0C1C3C
:10D99C00002501FB040406E03E6814F808A0664468
:10D9AC001E4406F808A01FFA85F8414505F101054B
:10D9BC00F2D80EF1010EE2E7BDE8F0855C390020EB
:10D9CC00A8DF7047AADF704762DF7047F0B54FF6EB
:10D9DC00FF7303800B68036195B02D4B04AA0546B9
:10D9EC0003F11007164618685968144603C4083327
:10D9FC00BB422246F7D1291D3046FFF7E5FF04460E
:10DA0C00002841D101262B798DF80A30AA1C02A9D5
:10DA1C003046ADF80860FFF7D3FF0446002833D139
:10DA2C0001461C220DA800F0F4F99DF834300C943A
:10DA3C0023F00A0343F00A038DF83430154B0E9390
:10DA4C004FF00D130F932B798DF80E300223ADF898
:10DA5C000C3011238DF804308DF8053003AB08938E
:10DA6C0001AB09931923CDE90A446888ADF8283035
:10DA7C0066F34204ADF82C3008AAAB1D0DA98DF845
:10DA8C000640FFF79FFF0446204615B0F0BD00BFCF
:10DA9C00E8490200F84902000288112A10B40B462A
:10DAAC0015D0502A05D0102A01D182881A8010BCBA
:10DABC007047C488CA889442F9D10C69002CF6D0FE
:10DACC00038A00F11202A446808810BC60474FF60E
:10DADC00FF72EBE77F2805D8034A044B105C5B5CB4
:10DAEC001840704700207047144A0200944A020004
:10DAFC00A0F16103192B98BF20387047A0F14103A6
:10DB0C00192B98BF203070477F299ABF01700120D4
:10DB1C006FF02E00704700BF5AB10A787F2A0AD8DE
:10DB2C0000B102600021501AC3E9001118BF012096
:10DB3C007047104670476FF02E007047A0F16103DC
:10DB4C00192B98BF20387047A0F14103192B98BFAF
:10DB5C00203070477F2805D8034A044B105C5B5C6F
:10DB6C001840704700207047144A0200944A020083
:10DB7C0038B585680446084645B122686168531C6F
:10DB8C008B4208BF00208A420AD2A854E26823685C
:10DB9C002AB161688B4202D2214690472368013337
:10DBAC00236038BD70B54D1E22D413681446C6B21E
:10DBBC000EE0D0542368E2682AB16168994202D918
:10DBCC00214690472368013D01336A1C23600FD026
:10DBDC00A26872B1616803F1010C8C4514BF304628
:10DBEC0000209942E5D8013D63466A1C2360EFD1C1
:10DBFC0070BD3046DFE700BFC3062BD410F4007FA6
:10DC0C0070B514BF302620264D1E22D4136814463E
:10DC1C00F6B20EE0D0542368E2682AB161689942EA
:10DC2C0002D9214690472368013D01336A1C2360C9
:10DC3C000FD0A2687AB1616803F1010C8C4514BF56
:10DC4C00304600209942E5D8013D63466A1C2360AA
:10DC5C00EFD170BD70473046DEE700BF024B5B680A
:10DC6C009B6809211B6818472C1B00200EB410B5AB
:10DC7C0087B009AA0024CDE9040452F8041B0192D0
:10DC8C006FF0004302A8039300F048F907B0BDE819
:10DC9C00104003B0704700BF10B4840724D1026851
:10DCAC00A2F1013323EA020313F0803F034608D1AB
:10DCBC0053F8044FA4F1013222EA040212F0803F1F
:10DCCC00F6D01A781AB113F8012F002AFBD143EAC7
:10DCDC00010292070AD0013B11F8012B03F8012F26
:10DCEC00002AF9D110BC70470346EAE70A68A2F192
:10DCFC00013424EA020414F0803FECD101F1040C4D
:10DD0C0043F8042B61465CF8042BA2F1013424EA9D
:10DD1C00020414F0803FF3D0DDE700BFB2B1012A5A
:10DD2C001BD0024410B5034602F1FF3C05E011F88C
:10DD3C00012B904208D19C450AD01C4613F8010BCC
:10DD4C008E460028F3D10A78801A10BD1046704711
:10DD5C0060789EF80120801A10BD00780A78801A2D
:10DD6C00704700BFB2B100B501F1FF3C034601E0C2
:10DD7C00013A0DD01CF8011F9E4603F8011B002927
:10DD8C00F6D1012A04D0724403F8011B9A42FBD14C
:10DD9C005DF804FB704700BF027862B169B100EB1B
:10DDAC00010C034601E0634503D013F8011F002961
:10DDBC00F9D1181A7047104670470846704700BFD3
:10DDCC00844640EA010313F0030F18D18446202A3D
:10DDDC000BD32DE9F007B1E8F807A0E8F807A2F19A
:10DDEC002002202AF7D2BDE8F007042A07D351F805
:10DDFC00043B40F8043BA2F10402042AF7D2002AA7
:10DE0C0005D011F8013B00F8013B013AF9D160460D
:10DE1C0070478446002A2DD010F0030F04D000F870
:10DE2C00011B013A26D0F7E7C9B241EA012141EAC8
:10DE3C000141202A12D3A2F120022DE9F0030B4656
:10DE4C000C460D460E460F4688468946A0E8FA0356
:10DE5C00203AFBD2BDE8F00320320BD0042A05D3C4
:10DE6C0040F8041B043A05D0042AF9D200F8011B2F
:10DE7C00013AFBD160467047024610F0030F16D1F1
:10DE8C0011F0030F13D12DE9F0004FF001374FF0D3
:10DE9C00803351F8044BA4EB070525EA04051D401B
:10DEAC0002D142F8044BF4E7A1F10401F0BC11F8E3
:10DEBC00013B02F8013B002BF9D1704700F1010145
:10DECC0010F0030F11D010F8012B002A23D010F002
:10DEDC00030F0AD010F8012B002A1CD010F0030FEE
:10DEEC0003D010F8012B002A15D02DE970004FF04B
:10DEFC0001324FF0803350F8044BA4EB020525EAB5
:10DF0C0004051D4000D1F6E7A0F1040070BC10F828
:10DF1C00012B002AFBD1A0EB010070472DE9F04F3B
:10DF2C0000230C46036089B014F8011B03920746CA
:10DF3C00002900F0E582DFF8489207E03846FFF749
:10DF4C0017FE14F8011B002900F05B812529F5D17F
:10DF5C002246002612F8010B302800F29E801F2862
:10DF6C000ED9A0F12003102B0AD8DFE803F0AC097E
:10DF7C0009A8090909A4090909A0099C09098D0026
:10DF8C002A2840F0FF80039B10781D680433002D75
:10DF9C000393BCBF6D4246F01006A21C2E2800F065
:10DFAC0007810021742800F092807A2800F08F807D
:10DFBC006C2800F035814C2800F03881682800F07E
:10DFCC00C1811446002800F08880A0F12503DAB244
:10DFDC00532A00F22E81532B00F22B81DFE813F031
:10DFEC00EE01290129012901290129012901290110
:10DFFC0029012901290129012901290129012901C5
:10E00C0029012901290129012901290129012901B4
:10E01C0029012901290129012901290129012901A4
:10E02C002901290129012901290129012901290194
:10E03C002901290129012901290129012901290184
:10E04C00290129012901820029012901290129011C
:10E05C00290129012901290129012901D901F900E5
:10E06C002901290129012901F90029012901290185
:10E07C00290153024B02160229012901F001290141
:10E08C00CE0129012901840046F40076144622466B
:10E09C0012F8010B30287FF662AF5E2872D146F47D
:10E0AC0080561446F3E746F010061446EFE746F0A8
:10E0BC0020061446EBE746F400461446E7E746F024
:10E0CC0080061446E3E746F040061446DFE71446A4
:10E0DC0014F8010B00287FF478AF4FF0FF3009B033
:10E0EC00BDE8F08F46F4005616F0800A06D043F2D5
:10E0FC00780A43F25803782818BF9A4616F48073AE
:10E10C0007BF06F48042B04626F4007806F480423D
:10E11C00002A64D1039A18F0040F02F10406039646
:10E12C00126800F0A38092B2002B68D028F400781B
:10E13C005838202800F2A080DFE810F076019E000D
:10E14C009E009E009E009E009E009E009E009E00D3
:10E15C009E009E00D7009E009E009E009E00D70051
:10E16C009E009E009E009E009E000C0176019E006B
:10E17C009E009E009E00D7009E009E00760100BF70
:10E18C00CDCCCCCCA0F13004E3B2092B4FF0000580
:10E19C003FF604AF12F8010B05EB850504EB4505C2
:10E1AC00A0F13004E3B2092BF4D92E287FF4F9AE98
:10E1BC0010782A2840F07781039B50781968941CBA
:10E1CC000433002903932246FFF6ECAE46F4807626
:10E1DC00E8E646F4804806F480734FF0000A039A90
:10E1EC0018F0040F02F104060396126830D012B234
:10E1FC00002A31DA52424FF02D0A002B96D1012120
:10E20C0096E73868BB68002B3FF469AF7A688242A6
:10E21C007FF665AF00221A54386809B0BDE8F08F5C
:10E22C00144646F0010614F8010BCBE646F0010645
:10E23C001446B44BD3F80080B8F1000F3FF481AE14
:10E24C00009103A901912B4632463946C04778E626
:10E25C0018F0080FCCD0D2B218F0200F40F03B8150
:10E26C0018F0400F18BF4FF0200A5DE718F0080FA8
:10E27C003FF45AAFD2B257E74FF0FF36002321EAF2
:10E28C00E17BA5EB0B05BAF1FF0FA5EB030540F203
:10E29C000481CAF307213846023DFFF769FC5FFA97
:10E2AC008AF13846FFF764FC40463A462946FFF7A8
:10E2BC00A3FC3A4659463020FFF774FC731C0AD075
:10E2CC0001360DF1140A564416F8011D3846FFF7B5
:10E2DC004FFCB245F8D118F0100F3FF432AE29467E
:10E2EC003A462020FFF75EFC2BE61046002A00F091
:10E2FC00038108F4004C624600238C464FF02C0E30
:10E30C00114603F0030209B1032A14D01E46A9FBDF
:10E31C000032D20802EB820306F1200BA0EB430380
:10E32C00EB44303309280BF80C3C06F1010340F2A6
:10E33C009F801046E5E703F120026A445E1C02F858
:10E34C000CECE4E71078682800F0D180541C46F0FF
:10E35C00040637E61046002A00F0CE800DF1140CAE
:10E36C00002302F007023032C0080CF8012B1E46C5
:10E37C00024601330028F4D1C91A80E716F48073E1
:10E38C0000F0AC8026F4007806F480424FF0000ACE
:10E39C00BEE6039B013D191D93F8008003913A469C
:10E3AC0029463046FFF728FC41463846FFF7E0FB8C
:10E3BC00B3461BF0100F3FF4C4AD90E72521BDE52B
:10E3CC00039B514A181D0390D3F800A0BAF1000F1B
:10E3DC0008BF9246F205D04626F4007B504640F129
:10E3EC008280FFF7D9FC0646AD1B3A4629465846B3
:10E3FC00FFF702FC002EDCD018F8011B3846FFF7A3
:10E40C00B7FBAAEB0803F342F6D1D2E7039B1A1D24
:10E41C00039216F0800F1A6846F480780CBF4FF008
:10E42C00000A4FF0230A08211046002A64D008F491
:10E43C00005C634605AA8C460026194609E0334B5E
:10E44C00000913F80E3002F8013B06F101030FD05E
:10E45C001E4600F00F0E73460029F0D1DFF8B0E035
:10E46C0000091EF8033002F8013B06F10103EFD15D
:10E47C006146C91A03E716F0800F0CBF4FF0000A73
:10E48C004FF0300A3AE6039B3A68191D03911B685A
:10E49C0031074CBF1A701A6053E5BAF1000F3FF404
:10E4AC0003AF013DFBE6A0F13004E3B2092B02F10E
:10E4BC0001024FF000013FF689AE12F8010B01EB9F
:10E4CC00810104EB4101A0F13004E3B2092BF4D932
:10E4DC0046F4807666E54FF02B0A25E606F480427A
:10E4EC00B0469A4614E6FFF7E9FC06467CE75078FE
:10E4FC0046F00806941C65E513464FF0FF36BEE661
:10E50C0008467FE674390020684C0200584C020023
:04E51C00484C020065
:08E5200041B101000000000000
:10E5280065C40100000000002DCB01007C22002002
:10E5380085C50100882300204DC3010000000000AC
:10E54800A5DA0100742300206FC70100982300207A
:08E55800F9B801000000000009
:08E56000DDB101000000000024
:10E56800EDCC01000000000021CF010000000000F8
:10E57800841B00204C1C0020541C00208C1B0020F5
:04E588001800000077
:10E58C000AED01000000000010ED01000000000089
:10E59C0017ED01000000000026ED01000000000056
:10E5AC001BED01000000000020ED01000000000048
:10E5BC0065E60100000004043CE7010000000000D7
:10E5CC0060E701000000000004ED01000000000005
:10E5DC00ECEC010000000404D3EE01000000040484
:10E5EC00E0EE01000000030339F101000000030319
:10E5FC0054F1010000000303C6E701000000000015
:08E60C00DCE701000000000042
:10E6140038E601000000000044E60100E01A002092
:10E624000000000000000000000000000338FDD8D6
:10E6340070470000F19301005D940100ED93010027
:10E644007274745F6C6F675F6261636B656E6400A4
:10E654004261636B656E647320666C757368656490
:10E664000061707000000000742000207F00000032
:10E67400F42000201B5B313B33316D0025734C6F5C
:10E6840067732064726F707065642028256429257F
:10E69400730D0A001B5B306D002573003C25733E2F
:10E6A4002025733A200020253032780020202000D5
:10E6B4007C002563001B5B313B33306D001B5B31F9
:10E6C4003B33326D001B5B313B33336D001B5B31DD
:10E6D4003B33346D001B5B313B33356D001B5B31C9
:10E6E4003B33366D001B5B313B33376D0077617212
:10E6F4006E696E6700696E666F00646562756700B7
:10E7040098E60100B9E6010078E60100C1E60100DF
:10E71400C9E60100D1E60100D9E60100E1E6010005
:10E72400E9E60100000000004DE70100F1E6010008
:10E73400F9E60100FEE601006170705F62757474B1
:10E744006F6E00466174616C206572726F72005363
:10E75400797374656D207265736574006170705FA0
:10E7640074696D657200010006000000000000007D
:10E774000C210020599D010052544320696E73748A
:10E78400616E636520616C726561647920696E698C
:10E794007469616C697A65642E005254433A206945
:10E7A4006E697469616C697A65642E000338FDD8FA
:10E7B4007047303132333435363738394142434487
:10E7C40045467077725F6D676D74000028E501003F
:10E7D40028E5010004000000736F72746C6973749F
:10E7E400004E52465F53554343455353004E5246E1
:10E7F4005F4552524F525F5356435F48414E444C1B
:10E8040045525F4D495353494E47004E52465F456A
:10E8140052524F525F534F46544445564943455F05
:10E824004E4F545F454E41424C4544004E52465F64
:10E834004552524F525F494E5445524E414C004E40
:10E8440052465F4552524F525F4E4F5F4D454D0009
:10E854004E52465F4552524F525F4E4F545F464FA1
:10E86400554E44004E52465F4552524F525F4E4FF2
:10E87400545F535550504F52544544004E52465FD6
:10E884004552524F525F494E56414C49445F5041A4
:10E8940052414D004E52465F4552524F525F494ECF
:10E8A40056414C49445F5354415445004E52465FCF
:10E8B4004552524F525F494E56414C49445F4C4574
:10E8C4004E475448004E52465F4552524F525F499C
:10E8D4004E56414C49445F464C414753004E5246C4
:10E8E4005F4552524F525F494E56414C49445F4432
:10E8F400415441004E52465F4552524F525F44418B
:10E9040054415F53495A45004E52465F4552524F57
:10E91400525F54494D454F5554004E52465F45523F
:10E92400524F525F4E554C4C004E52465F45525228
:10E934004F525F464F5242494444454E004E524660
:10E944005F4552524F525F494E56414C49445F41D4
:10E95400444452004E52465F4552524F525F425514
:10E964005359004E52465F4552524F525F434F4EE9
:10E974004E5F434F554E54004E52465F4552524FE0
:10E98400525F5245534F5552434553004E52465FD2
:10E994004552524F525F4D4F44554C455F4E4F5474
:10E9A4005F494E495449414C495A4544004E5246E8
:10E9B4005F4552524F525F4D555445585F494E4939
:10E9C400545F4641494C4544004E52465F455252BD
:10E9D4004F525F4D555445585F4C4F434B5F464132
:10E9E400494C4544004E52465F4552524F525F4D8A
:10E9F400555445585F554E4C4F434B5F4641494C27
:10EA04004544004E52465F4552524F525F4D555455
:10EA140045585F434F4E445F494E49545F46414910
:10EA24004C4544004E52465F4552524F525F4D4F43
:10EA340044554C455F414C52454144595F494E4908
:10EA44005449414C495A4544004E52465F4552523E
:10EA54004F525F53544F524147455F46554C4C000B
:10EA64004E52465F4552524F525F4150495F4E4F9E
:10EA7400545F494D504C454D454E544544004E520B
:10EA8400465F4552524F525F464541545552455F89
:10EA94004E4F545F454E41424C4544004E52465FF2
:10EAA4004552524F525F494F5F50454E44494E477D
:10EAB400004E52465F4552524F525F4452565F5485
